:020000040800F2
:1000000078080020AD010008C73100087D2F0008E6
:10001000C531000895190008ED3A000800000000FD
:100020000000000000000000000000001134000883
:100030009719000800000000A9330008F1350008F6
:10004000C7010008C7010008C7010008C701000870
:10005000C7010008C7010008C7010008C701000860
:10006000C7010008C7010008C7010008C701000850
:10007000C7010008C7010008C7010008C701000840
:10008000C7010008C7010008C7010008C701000830
:10009000C7010008C7010008C7010008C701000820
:1000A000C7010008C7010008C7010008C701000810
:1000B000C701000855360008C7010008C70100083D
:1000C000C7010008C7010008C7010008C7010008F0
:1000D000C7010008E13A0008C7010008C70100088D
:1000E000C7010008C7010008C701000800F002F8B6
:1000F00000F04DF80AA090E8000C82448344AAF175
:100100000107DA4501D100F042F8AFF2090EBAE872
:100110000F0013F0010F18BFFB1A43F0010318473B
:10012000D0460000F0460000103A24BF78C878C1DD
:10013000FAD8520724BF30C830C144BF04680C60ED
:10014000704700000023002400250026103A28BF35
:1001500078C1FBD8520728BF30C148BF0B60704739
:10016000642900F08B80002070471FB500F08EFAE4
:1001700004000020002103F05DFE401C60600020B0
:10018000002103F06DFEE0601FBD10B510BD00F052
:1001900057FA1146FFF7E9FF03F0B6FD00F0BCFA8D
:1001A00003B4FFF7F2FF03BC00F0EEFD09488047FF
:1001B00009480047FEE7FEE7FEE7FEE7FEE7FEE749
:1001C000FEE7FEE7FEE7FEE704480549054A064B61
:1001D0007047000051360008ED000008780200204A
:1001E0007808002078040020780400200FB41CB5A3
:1001F000074B06AA7B4469460090059800F015F964
:100200000020694600F024F91CBC5DF814FB0000D6
:10021000590200002DE9F0410E46044600202062FC
:100220002046E168884730B3252805D0D4E901216C
:100230009047206A401CF2E7E16820460027884783
:10024000050018D0A5F14100192802D820354FF437
:1002500000673246294620462760FFF781FF40B1FC
:10026000012804D0F61D26F007060836D8E7361D0B
:10027000D6E72846DAE7206ABDE8F0812DE9F041AB
:100280000646002410687529314616A510D0AFF334
:100290000080002802DA404213A507E031688A078F
:1002A00001D512A502E0490704D511A5012401E0FA
:1002B000AFF3008000210A2206F1240709E0B0FB19
:1002C000F2FCB0FBF2F302FB1C003030785418460D
:1002D000491C0028F3D123462A463046BDE8F041A8
:1002E00000F044B8000000002D0000002B000000CA
:1002F0002000000070B5064600F034F8046805469A
:1003000030460A22002100F0B5F82C6070BD4FF095
:10031000000200B5134694469646203922BFA0E855
:100320000C50A0E80C50B1F12001BFF4F7AF090761
:1003300028BFA0E80C5048BF0CC05DF804EB890052
:1003400028BF40F8042B08BF704748BF20F8022B95
:1003500011F0804F18BF00F8012B704770477047AD
:100360007047000000487047140200202DE9F04754
:100370000D4699469246044600F124080168880615
:1003800004D5E06921F01001216000E00120A842BD
:1003900001DD471B00E00027A1697A1902EB090083
:1003A000081AA0612078C00602D42046AFF300806E
:1003B000002608E0D4E901211AF806009047206AD7
:1003C000401C761C20624E45F4DB2078C0060AD51E
:1003D0002046AFF3008006E0D4E9012130209047A9
:1003E000206A401C2062381EA7F10107F4DC07E0F8
:1003F000D4E9012118F805009047206A401C2062CA
:10040000281EA5F10105F3DC2046AFF3008020781B
:10041000000602D50220BDE8F0870120FBE70000BE
:1004200001694A1C02610878704700B58FB0CDE9B8
:1004300001310021059105497944CDE903101146A8
:100440006846FFF7E7FE0FB000BD0000E5FFFFFFC5
:100450000A6802F8010B0A6070477CB50546002364
:100460006846CDE9003300F0B7F86946284603F046
:100470006DFB7CBD2DE9F04791460F468046044652
:10048000002614F8015B2DB100F030F80068405DE3
:10049000C007F6D12B2D02D02D2D18D0641E4A4650
:1004A0003946204600F02AF827B13968A14201D127
:1004B000C7F800804FF0020471050BD540420028B8
:1004C00003DDFFF74FFF0460A007BDE8F08746F4A7
:1004D0008066E4E70028F8DAFFF744FF04606FF075
:1004E0000040F2E7004870471402002010B500F009
:1004F000CDF8001D10BD00BF3D3900002DE9F05FB3
:10050000824615468B4600270AF10104B946007859
:10051000302801D09DB113E014F8010B0127782891
:1005200003D0582801D045B10AE00DB1102D07D1F4
:10053000002714F8010B102502E0082500E00A2529
:100540000026B0460EE005FB080005FB06F101277A
:100550001FFA80F801EB1046B6F5803F00D3B9468C
:1005600014F8010B294600F0A9F80028EBDABBF1DA
:10057000000F05D00FB1641E00E05446CBF80040D8
:10058000B9F1000F06D0FFF7EDFE02210160C81E91
:10059000BDE8F09F48EA0640FAE700000FB40023E8
:1005A00000B589B00CA900910B99CB60214B7B441D
:1005B0000693214B7B44079304236FF00042CDE95F
:1005C00001321E4A7A446B4608920246002004F02B
:1005D0009BF809B05DF814FB70B506464FF0FF308C
:1005E00015460C46324686B00091CDE901016946B8
:1005F0000020049004A8FFF7D1FF024604982118B8
:1006000025B108B1084600E020462860049800287B
:100610000DD0002A02DD0098884208D03246081B1F
:1006200069460094CDE9010404A8FFF7B7FF06B0BE
:1006300070BD0000270100003F010000E300000042
:100640007546FFF74FFFAE4605006946534620F05A
:100650000700854618B020B5FFF7B6FDBDE820407D
:100660004FF000064FF000074FF000084FF0000B6E
:1006700021F00701AC46ACE8C009ACE8C009ACE821
:10068000C009ACE8C0098D467047000000487047BB
:100690003402002010B5FFF765FE006810BD10B5EC
:1006A0000446FFF75FFE046010BD10B50446FFF777
:1006B0001DFF0068005D00F0010010BD3A2800D267
:1006C000303820F02002412A01D3A2F137008842BD
:1006D00001D34FF0FF307047426842B1016811F812
:1006E000013B23B1521EC0E9001218467047012198
:1006F000C160881E704742685AB1C368016843B937
:1007000083688B4205D0491E521CC0E900120020AC
:1007100070474FF0FF30704710B50446AFF30080CC
:100720002046BDE81040FFF73BBD00002DE9FF4F1C
:1007300006468BB00878FF2806D0491C2D2805D026
:1007400000244FF0000908E000200CE00124F8E745
:1007500009EB8903491C00EB43090878FF28F7D10E
:1007600014B1C9F100008146107800252C46AA4634
:1007700029462D2801D02B2804D1521C2D2813D016
:10078000002082468B461078FF280FD04FF0000CD7
:100790000A21521CA5FB017804FB018105FB0C1109
:1007A000C5194BEB0104EEE70120EAE700210846FA
:1007B0004FF00000BAF1000F02D000EB80004008BB
:1007C000C0F38157012F01DD4FF0FF370E9955EA35
:1007D000040009EB01080BD04FF0020918F5FA7F6D
:1007E00016DA4FEACA70002F706008DD012007E0BA
:1007F0004FEACA70C6E900B00FB0BDE8F08F002024
:100800003060FFF7AFFDC0F800901821084616E0F1
:10081000B8F5FA7F18DD002F02DAF748784401E0D6
:10082000F6487844D0E90010C6E9001040EACA70E2
:100830007060FFF797FDC0F80090142108460FB0D4
:10084000BDE8F04F03F0FDBE002108464FF0000068
:10085000B8F10001099002DAC7F1000200E03A465F
:1008600001DAC8F1000106A800F01CFA06AB93E813
:10087000070003AB83E8070044F23E005BEA040193
:100880000090584604D144F21E012C465D4600916A
:10089000210C0904014306D10099240444EA1544BB
:1008A0002D041039009104F07F41014306D10099D5
:1008B000240244EA15642D020839009104F07041C5
:1008C000014306D10099240144EA15742D01091F42
:1008D000009104F04041014306D10099A40044EA8C
:1008E0009574AD00891E009104F00041084304D1C5
:1008F00000986D196441401E00904FF001033A4684
:100900006846B8F1000FCDE9014503A902DD00F00A
:100910000AFF01E000F0DDFEBAF1000F04460D46CB
:1009200001D084F00044002108464FF000000999EE
:1009300040F2FF77484010F00C0F07D124F0004040
:10094000284303D0C4F30A50B84212D1FFF70AFD7E
:10095000C0F80090C4F30A50B8420AD1A8487844BD
:10096000D0E90010C6E9001004F0004108437060AF
:1009700042E7C6E900543FE72DE9FF4F1F464FF01D
:10098000000A4FF0FF38454691B0D7E90146CDF84F
:100990003CA0FFF77BFEC0680168405C1090B9691D
:1009A00012986D1C8847396A814688470028F6D11D
:1009B000B9F1FF3F0AD0002E24F4D06411DDB9F163
:1009C0002B0F08D0B9F12D0F0BD102E0404615B026
:1009D00013E744F48064B96912986D1C8847761E49
:1009E0008146600504A901D52D2000E02B20002EB2
:1009F00001F1010B0DF130088DF810003FDDB9F168
:100A0000690F08D0B9F1490F05D0B9F16E0F02D0C6
:100A1000B9F14E0F1CD13B4601A8009580E8500269
:100A2000DDE912126FF0020003F072FEC11CCED19C
:100A30000EE0B96912986D1C884781461398761E9E
:100A400044F4007405600F98401C002E0F9016DDD2
:100A5000B9F1300FEDD0B9F1780F02D0B9F1580FDC
:100A60000DD10F9801280AD13B46CDE90054DDE9AC
:100A70001212001F029603F049FEC11CA7D1109963
:100A800089453ED144F0800406E01399681CAAF120
:100A9000010A44F400740860B9696D1C1298761E4E
:100AA000884730288146F0D02BE01099894505D140
:100AB000200603D4761E44F0800418E0484603F074
:100AC000B6F808B3761E0DF123018B4544F400748B
:100AD00008D2A9F130000BF8010B200607D5AAF1C6
:100AE000010003E0200602D40AF101008246A005BD
:100AF00002D51399681C0860B96912986D1C884763
:100B00008146002ED1DC53E0002E51DDB9F1650F96
:100B100002D0B9F1450F4BD1A00549D5B9696D1C7B
:100B20001298761E24F440748847002E81460CDD0E
:100B30002B2804D0B9F12D0F07D144F48074B96982
:100B400012986D1C8847761E8146E00501D52D213F
:100B500000E02B2108F8011BCDF8008021E0761E73
:100B60000DF13901884544F400740CD2A9F130002C
:100B700010F0FF0088F8000002D10099884509D9DB
:100B800008F1010806E0E00501D51E4801E042F247
:100B90000F708246B96912986D1C88478146139878
:100BA0000560002E04DD484603F041F80028D6D148
:100BB000F96912988847FF2053468BF8000088F89F
:100BC000000000200A900B9004AA0CA90AA8FFF7C5
:100BD000ADFDA00502D46FF00100F8E614F0240F7B
:100BE00012D0E0071CD13868DDE90A12031D3B6012
:100BF0000068C0E9001213E0F83F0000EA3F00007F
:100C0000AE3E0000F1D8FFFF0AA9684602F09EFF41
:100C1000E00705D13868009A011D3960006802605C
:100C20002846D4E64FF0013C50F8042B51F8043B21
:100C30009A4221D1A2EB0C03934313EACC1317D1B0
:100C400050F8042B51F8043B9A4215D1A2EB0C0347
:100C5000934313EACC130BD150F8042B51F8043B07
:100C60009A4209D1A2EB0C03934313EACC13DBD0D5
:100C70004FF00000704700BFD01A01BAB1FA81F1FD
:100C800001F0180122FA01F0CB40C1F12001DBB2E2
:100C9000C0B2C01A2CFA01F3D11A914311EAC31160
:100CA000E6D170472DE9F047814616468AB03548AF
:100CB00078440DC88DE80D0032487844801C03ACA0
:100CC0000DC884E80D0041F69B300844372190FBA5
:100CD000F1F290FBF1F5A5F1800501FB12041B3C3C
:100CE00002D56442012000E00020DFF898A0804691
:100CF0000027FA44AAF1BE0A0EE0E0070AD0324605
:100D0000684607EB470101230AEB810100F0F6FC7E
:100D10008DE8070064107F1C002CEED1194F7F4432
:100D2000AE3F19E0E80715D007EB04100DF1180AE3
:100D300090E80E008AE80E00C068F04201D19819D0
:100D400008903246012306A903A800F0D7FC03ABA4
:100D500083E807006D10641C002DE3D14FF0010300
:100D600032466946B8F1000F03A802D000F09CFC9F
:100D700001E000F0C3FCC9E90001C9F808200AB08D
:100D8000BDE8F087243B000001491820ABBEFEE718
:100D9000260002002DE9FF4F1F464FF03C0987B0A7
:100DA0004FF00042DDE9141001F10108DDF858A010
:100DB00002EA405003900020059083460546044611
:100DC0000490B969461E08988847AAF1010A029062
:100DD000BAF1000F3BDD02982E2815D01021FFF745
:100DE0006DFC00282EDB4FF0010B0599014317D055
:100DF000B9F1000F0BDB4A46C11700F0F6F90543C5
:100E00000C43A9F1040905E0012004900BE008B1AE
:100E100045F0010501200590049820B9361D02E037
:100E2000049800B1361FB969089808F1010888478D
:100E3000BBF1000FAAF1010A0290C9D00999C1F8CB
:100E40000080C5E70298702808D0502806D0F969BC
:100E500008988847BBF1000F14D04FE000200290A3
:100E60000120BBF1000F049009D0B969089808F17E
:100E700001088847AAF10109B9F1000F07DCF969F7
:100E8000089888476FF001000BB0BDE8F08F2B2861
:100E900004D02D280CD14FF0FF300490B969089888
:100EA00008F101088847A9F10109B9F1000FE6DD51
:100EB000411CE4D00A21FFF701FC0028DFDB029986
:100EC00008F1010801EB810100EB41000290B969D2
:100ED000089888470A21FFF7F1FB099AA9F101094F
:100EE000B9F1000FC2F8008001DD0028E7DAF969E6
:100EF000089888470499029800FB016655EA0400A7
:100F000004D004F04041090002D006E0039898E0C4
:100F1000A40044EA9574AD00B61E04F00041080038
:100F200002D16D196441761E159810F0240F03D07C
:100F30004FF00B095C4803E04FF028096FF07D008B
:100F40008246564507DAAAEB06018944B9F1410FFA
:100F500001DD4FF0410901200021A9F1010200F05B
:100F600044F9024628400B462140084301D00121A4
:100F700000E00021501E029143F1FF312840214042
:100F8000084301D0012000E000200299834651EA85
:100F90000B014FD0002108464FF00000039900F4E8
:100FA000400039B100EB80004FF4400100EBD070FD
:100FB00001EA60008015012802DD4FF0FF3000E0FB
:100FC00013D0401C36D0029860B3BBF1000F0CD197
:100FD0004A460120002100F008F92840214008433A
:100FE00001D0012000E00020E0B101204A460021AC
:100FF00000F0FBF8034640190A4661412D1A8C4166
:1010000011D3B9F1400F09DD159810F0240F02D06B
:10101000AAF1340603E0AAF1170600E0761C0025C9
:101020004FF0004406E05B1E42F1FF3220EA030568
:1010300021EA0204CAF10100B04206DA1B49039812
:1010400008430190002000900EE0039AC4F3D321DE
:10105000E80A0A43164940EA44500A433146CDE9BA
:101060000002684602F0D8FD159810F0240F0BD04E
:101070001598C00715D13868DDE90012031D3B60E3
:101080000068C0E900120CE002A8694602F05EFDAB
:101090001598C00705D13868029A011D39600068AB
:1010A00002604046F0E6000002FCFFFF0000F07F17
:1010B0000000F03F2DE9FF4F92461D4685B04FF0EE
:1010C0000041DDE9124BDDE914727F1E01EA4B504D
:1010D000414940F0FF4940EA0108002122F0200088
:1010E0004928049102D04E2828D04CE03BA001268C
:1010F00007C88DE80700A9690698641C88477F1E09
:10110000014606D41DF8060018B121F020018142E5
:101110000BD0E96906988847032E34D0082E32D0C8
:101120006FF0010009B0BDE8F08F761C032E01D0EE
:10113000082EE0D1601CCAF80000DCE7A969069817
:10114000641C88477F1E2AD420F02000412826D125
:10115000A9690698641C88477F1E20D420F02000CF
:101160004E281CD1A9690698641C88477F1E48F444
:10117000002849F48009CAF8004001D4282806D084
:10118000E969069888475FEACB7012D022E0A96926
:101190000698641C88477F1E01D4002803DAE96999
:1011A00006988847BCE72928F1D1641CCAF800409A
:1011B000E9E71BF0240F07D028680499031D2B6072
:1011C0000068C0E9001805E02868021D2A60006870
:1011D000C0F800902046A5E70000F07F494E464940
:1011E0004E495459000000007047B2F120030AD55F
:1011F000C2F1200301FA02F120FA03F300FA02F02F
:1012000041EA0301704700FA03F14FF00000704714
:1012100020F07F4C80EA030023F07F47ACEB07030C
:1012200003F57C5300F0004003F1FF032DE98049F2
:101230004FEA154B09B44FEA144325EA0B4E24EA52
:1012400003480FF2042606EB132749083E785FEAAD
:10125000320203FB0667C7F5000707FB06F64FEAF5
:1012600054374FEAD64606F1020607FB066CCCF16E
:10127000005C4FEA1C472CEA074C07FB06F40CFB0A
:1012800006F504EB15464FEA961634BF00204FF0E2
:1012900000404FEAD13706FB07FC4FEA1C4C0CFB21
:1012A0000BF7D21B03FB0CF761EB07010CFB0EF7EE
:1012B000B0EB074072EB17420CFB08F734BFA2EB10
:1012C0000742B2EB074261EB17414FEA0C444FEA89
:1012D000910706FB07FC4FEA1C4C0CFB0BF7B0EB2D
:1012E000C74072EB573203FB0CF734BFA2EBC74287
:1012F000B2EBC74261EB57310CFB0EF7B0EBC70006
:1013000072EB57720CFB08F734BFA2EBC702B2EBCB
:10131000C70261EB5771039F4FEA816141EA921165
:1013200004EBCC044FEAD1374FEA826206FB07FC9C
:1013300042EA90124FEA80604FEA1C4C0CFB0BF71C
:10134000D21B03FB0CF761EB07010CFB0EF7B0EBB4
:10135000074072EB17420CFB08F734BFA2EB0742C1
:10136000B2EB074261EB17414FEA8C554FEA910708
:1013700004EB9C2406FB07FC4FEA1C4C0CFB0BF710
:10138000B0EBC74072EB573203FB0CF734BFA2EB54
:10139000C742B2EBC74261EB57310CFB0EF7B0EB23
:1013A000C70072EB57720CFB08F734BFA2EBC70201
:1013B000B2EBC70261EB577115EB4C254FEA816127
:1013C00041EA92114FEA82624FEAD13742EA901223
:1013D00006FB07FC44F100044FEA80604FEA1C4C16
:1013E0000CFB0BF7D21B03FB0CF761EB07010CFBAB
:1013F0000EF7B0EB074072EB17420CFB08F734BF57
:10140000A2EB0742B2EB074261EB174115EB1C154B
:101410004FEA813141EA92414FEA823242EA9042F8
:101420004FEA80304FEA0C7644F1000448EA034367
:101430004EEA0B484FF0000EB2EB080C71EB0307BD
:1014400024BF624639464EEB0E0E4FF0000B0018DB
:10145000524149414BEB0B0BB2EB080C71EB03070C
:101460007BF1000B24BF624639464EEB0E0E4FF067
:10147000000B0018524149414BEB0B0BB2EB080C2F
:1014800071EB03077BF1000B24BF624639464EEB3C
:101490000E0E51EA020718BF46F0010616EB0E7653
:1014A00055F1000254F1000103D5BDE88901BDE802
:1014B0000088BDE88901BDE80048B619524141EBFA
:1014C0000101A3F10103704780807F7E7D7C7B7AE0
:1014D0007978777676757473727171706F6E6E6DE0
:1014E0006C6C6B6A6A696868676666656464636386
:1014F00062616160605F5F5E5E5D5D5C5C5B5B5A0C
:101500005A59595858575756565555555454535378
:1015100052525251515050504F4F4F4E4E4D4D4DD3
:101520004C4C4C4B4B4B4A4A4A494949484848471E
:10153000474747464646454545444444444343435C
:10154000434242424241414146EA0646A3F57053B6
:101550004FEA164646EA42564FEAD22242EA415242
:1015600010B54FEAD121A3F1010300F02FF820F0CC
:10157000004000F1020C00F0004701EB0050114662
:10158000BCF5006F40EA070000D210BDBAF1000FB1
:101590000AD01CB503B44FF004004FF004014FF023
:1015A00000000FBCBDE810404FF00001BBF1010F7F
:1015B000B9BF04484FF0FF310348002140EA07005B
:1015C00010BD00BFFFFFEF7F0000F07F002B9C46A7
:1015D00030D477002BD01CB54FEA370703B44FF057
:1015E00010004FF01001BAF1000F06D0BCF1000F4F
:1015F000DCBF40F0080040F008014FF000000FBCD5
:10160000BDE810400BF1010BBBF1010F08BF5FEA11
:10161000170722BF12F1010211F101014FF0004141
:1016200043F1000300F0004043EA00007047F9D3A3
:101630005708D0E746EA064613F1400F4FEA164630
:101640001FDD13F1200FDFBF16430A4600212033B0
:101650005B42BED0C3F1200746EA064602FA07F70E
:101660004FEA164646EA0706C3F1200722FA03F2BC
:1016700001FA07F721FA03F14FF0000342EA0702EB
:10168000A7E746EA020646EA06464FEA164646EA53
:101690000106BCBF46EA0646360C4FF000034FF089
:1016A00000024FF0000194E72DE9804C9A469346E2
:1016B00070B491E8380007C831EA400C48BF34EAFA
:1016C000430C03D5FFF7A4FDFFF780FFF0BCBDE896
:1016D000008C2DE9804C9A46934670B491E838000E
:1016E00007C831EA400C48BF34EA430C03D5FFF782
:1016F0008FFDFFF729FFF0BCBDE8008C2DE9804C81
:101700009A46934670B491E8380007C810F0804FAD
:1017100008BF13F0804F03D100F01AF8FFF756FF0F
:10172000F0BCBDE8008C2DE9804C9A46934670B41D
:1017300091E8380007C810F0804F08BF13F0804FC1
:1017400003D100F005F8FFF7FFFEF0BCBDE8008C08
:1017500020F07F4780EA030023F07F4C07EB0C0367
:10176000A3F57C5300F00040A3F1FE0392F0000FBC
:1017700000F0B38095F0000F00F077802DE901496B
:101780004FEA11404FEA144621EA004800FB06FCEC
:1017900024EA064708FB06F607FB08F800FB07F7F4
:1017A00018EB06484CEB164C4FEA124B18EB074867
:1017B0004FEA15464CEB174022EA0B4E0BFB06FC9A
:1017C00025EA06470EFB06F607FB0EFE0BFB07F7A6
:1017D0001EEB064E4CEB164C4FF000061EEB074E70
:1017E0004CEB174B18EB0B0840F1000018EB0E0BFD
:1017F00058EB000840F100008F1A4FF000013CBF89
:10180000C943661B14BFB5EB040C00213CBFC943A0
:10181000F61B4FEA17444EEA8E0E27EA04454FEABC
:101820001C4704FB07622CEA074C05FB07F70CFB7F
:1018300005F604FB0CFC16EB074642EB174216EBD1
:101840000C4642EB1C421BEB060658EB02024141E0
:1018500046EA9E0601D5BDE80189B619524141EB21
:101860000101A3F10103BDE801894FEA14454FEAE4
:10187000114724EA054621EA074C05FB07F406FB5D
:1018800007F70CFB06F105FB0CFC11EB074144EBE1
:1018900017444FEA124711EB0C4144EB1C4422EA77
:1018A000074C05FB07F206FB07F70CFB06F605FBEA
:1018B0000CFC16EB074642EB174216EB0C4642EBCC
:1018C0001C456A1854F1000148BF7047B6195241CF
:1018D00041EB0101A3F10103704795F0000F37D0F0
:1018E0004FEA11424FEA144721EA024624EA074C24
:1018F00002FB07F106FB07F70CFB06F402FB0CFCEE
:1019000014EB074441EB17414FEA154714EB0C4425
:1019100041EB1C4125EA074C02FB07F506FB07F7E4
:101920000CFB06F602FB0CFC16EB074645EB1745D5
:1019300016EB0C4645EB1C42121951F1000148BF51
:101940007047B619524141EB0101A3F10103704701
:101950004FEA14454FEA114724EA054621EA074CAD
:1019600005FB07F106FB07F70CFB06F24FF000063C
:1019700005FB0CFC12EB074241EB174112EB0C424A
:1019800051EB1C4148BF7047921841EB0101A3F194
:1019900001037047FEE770470A480B4982790968DE
:1019A0004AB14A6A8389D21A4281496A8181C189CE
:1019B0001144C181704700224A6242818281C28102
:1019C00070470000000000204001002072B6FEE7D2
:1019D00010B590F821100022022905D0042181635E
:1019E00080F82020012010BD01680B6823F00E0351
:1019F0000B6001680B6823F001030B6090F8403026
:101A0000C46B012101FA03F3636080F8211080F8B0
:101A10002020104610BD000010B590F821100024C1
:101A2000022903D00421816301243DE001680A6892
:101A300022F00E020A6001680A6822F001020A60C0
:101A40001A4A0168914201D1012121E0174A14325A
:101A5000914201D110211BE0144A2832914201D158
:101A6000891515E0114A3C32914201D189140FE0E9
:101A70000E4A5032914202D14FF4803108E00B4AB5
:101A80006432914202D14FF4801101E04FF0807135
:101A9000064A083A5160012180F82110002180F89F
:101AA0002010416B01B18847204610BD080002405C
:101AB0002DE9F84FDFF8B891002409F1040A0AF182
:101AC000040B23460F270BF1040EC9E00125A540A6
:101AD0002A40AA427DD1674ED1F804C0ACEB06087B
:101AE000B44532D014DCBCF1030F3AD009DCBCF1B0
:101AF000000F2AD0BCF1010F1CD0BCF1020F31D174
:101B00001DE0BCF1110F17D0BCF1120F2AD119E062
:101B1000B8F5881F19D006DCB8F5803F15D0B8F5A8
:101B2000801F1FD111E0B8F5001F0ED0B8F5041FBB
:101B300018D10AE0CB6815E0CB681B1D12E0CB681A
:101B400008330FE0CB680C330CE08B682BB1012B12
:101B50004FF0080303D0456104E0042302E005616F
:101B600000E00023FF2A01D8064601E000F1040648
:101B70004FEA840501D9A5F12005D6F8008007FABF
:101B800005FC28EA0C0803FA05F548EA0508C6F83A
:101B900000804D68ED0062D5374DAE6946F0010614
:101BA000AE61AD6924F0030605F001050095334DE3
:101BB00006EB050CDCF80850A607360F07FA06F806
:101BC00025EA0805DFF8B880404503D14FF000084A
:101BD00017E044E0DFF8AC80404502D14FF0010847
:101BE0000FE0DFF8A480404502D14FF0020808E082
:101BF000DFF89880404502D14FF0030801E04FF034
:101C0000040808FA06F848EA0508CCF808804D6888
:101C1000D9F80060ED034D4601D5164300E0964328
:101C20002E604D68DAF80060AD03554601D51643C5
:101C300000E096432E604D68DBF80060ED025D46E3
:101C400001D5164300E096432E604D68DEF8006033
:101C5000AD02754601D5164300E096432E60641C24
:101C60000D682A46E5407FF431AFBDE8F88F0000EB
:101C7000000401400000111000100240000001406B
:101C800000080140000C0140001001400014014018
:101C90000AB1016170470904FBE700000148806850
:101CA00070470000C4000020024881680278114497
:101CB00081607047C4000020074810B5016841F0FA
:101CC00010010160032000F075F80F2000F006F805
:101CD00000F024F8002010BD0020024070B50D4D2A
:101CE00004464FF47A712878B1FBF0F00A4909688C
:101CF000B1FBF0F000F0ECFA48B9102C07D200224A
:101D00002146501E00F036F800206C6070BD0120A6
:101D100070BD0000C4000020D00000200C4808B5B1
:101D2000816941F001018161816901F00101009146
:101D3000C16941F08051C161C06900F080500090DC
:101D40000448416821F0E06141F00071416008BD44
:101D50000010024000000140002809DB00F01F02D3
:101D6000012191404009800000F1E020C0F80011FD
:101D700070470000F0B40E4B1B680C46C3F30223FF
:101D8000C3F10705042D00D90425191D072901D227
:101D9000002300E0DB1E012606FA05F1491E214062
:101DA00099409E40761E16403143F0BC01F0AEBE15
:101DB0000CED00E0064900F0070208684FF6FF034B
:101DC000184040EA0220034A1043086070470000B0
:101DD0000CED00E00000FA052DE9F0470F46050084
:101DE00061D0434E306800F00700B84209D2306835
:101DF00020F0070038433060306800F00700B84238
:101E000051D128683B4C810712D5400703D5606843
:101E100040F4E06060602878000703D5606840F413
:101E2000605060606068A96820F0F000084360605E
:101E30002878C00728D06868012810D021680228B7
:101E400010D0890700292EDA616821F003010143CF
:101E50006160FFF723FF804641F288390DE0216879
:101E60008903EFE78901EDE7FFF718FFA0EB080111
:101E7000494502D90320BDE8F0876068696800F031
:101E80000C00B0EB810FEFD1306800F00700B842D2
:101E90000BD9306820F0070038433060306800F01C
:101EA0000700B84201D00120E5E72878400705D5B2
:101EB0006068E96820F4E060084360602878000703
:101EC00006D56068296920F4605040EAC10060606E
:101ED00000F038F86168084AC1F30311515CC8404A
:101EE0000649086006480068FFF7F8FE0020C2E7D0
:101EF000002002400010024044470008D0000020AB
:101F0000C80000200448054900684968044AC1F334
:101F10000221515CC8407047D000002000100240F0
:101F2000544700080448054900684968044AC1F359
:101F3000C221515CC8407047D00000200010024010
:101F40005447000812A185B00FC98DE80F0014A0F6
:101F5000144A006804905168134801F00C03042BE4
:101F600010D0082B0ED1C1F38343C9031DF8030021
:101F70000AD5516804AAC1F34041515C0A4A504352
:101F8000B0FBF1F005B0704708494843FAE700009C
:101F900002030405060708090A0B0C0D0E0F1010AA
:101FA000010200000010024000127A0000093D000A
:101FB0002DE9F84F040070D02078C04DC00749D0FB
:101FC0006868C0F38100012807D06868C0F3810009
:101FD000022809D16868C00306D52868800339D56E
:101FE00060680028E7D035E06068B0F5803F0BD02E
:101FF00010B1B0F5A02F11D0286820F480302860EF
:10200000286820F4802002E0286840F480302860AE
:10201000606890B1FFF742FE06460AE0286840F487
:1020200080202860F0E700BFFFF738FE801B64289F
:1020300073D828688003F7D50CE0FFF72FFE06461B
:1020400005E000BFFFF72AFE801B6428F0D828684F
:102050008003F7D420789A4E80074FF001094FF0A3
:10206000000839D5686810F00C0F07D06868C0F315
:102070008100022809D16868C00306D42868800757
:1020800014D52069012808D110E02069B0B1C6F844
:102090000090FFF703FE074605E00AE1FFF7FEFDAB
:1020A000C01B0228C4D828688007F7D52868616952
:1020B00020F0F80040EAC10028600DE0C6F800807A
:1020C000FFF7ECFD074604E0FFF7E8FDC01B022820
:1020D00023D828688007F7D4207800072CD57948C2
:1020E000A169D9B1C0F80090FFF7D8FD074604E018
:1020F000FFF7D4FDC01B02280FD8686A8007F7D508
:1021000071484FF4FA510068B0FBF1F0009000BF45
:102110000098411E0091FAD20EE080E0C0F80080E5
:10212000FFF7BCFD074604E0FFF7B8FDC01B02281F
:1021300075D8686A8007F7D42078400760D5E869C9
:102140000027C00008D4E86940F08050E861E869E1
:10215000012700F0805000905C480168C90513D445
:102160000168834641F480710160FFF797FD824664
:1021700006E000BFFFF792FDA0EB0A0064284ED8EE
:10218000DBF80000C005F5D5E06801280AD008B1E9
:10219000052813D0286A20F001002862286A20F060
:1021A000040002E0286A40F001002862E06841F281
:1021B000883B98B1FFF772FD82460BE0286A40F039
:1021C00004002862EEE700BFFFF768FDA0EB0A01FC
:1021D00059455AD8286A8007F6D50CE0FFF75EFD0E
:1021E000824605E0FFF75AFDA0EB0A0159454CD89D
:1021F000286A8007F6D41FB1E86920F08050E861B2
:10220000E06988B36968C1F38101022944D00228DA
:10221000C6F8608004D0FFF741FD044638E034E0A2
:10222000FFF73CFD074604E0FFF738FDC01B02281E
:102230002BD828688001F7D4206AB0F5803F05D1FB
:102240006868A16820F4003008436860D4E9080198
:102250000843696821F4741108436860C6F8609007
:10226000FFF71CFD044606E025E000BFFFF716FD62
:10227000001B022809D828688001F7D51BE000BFA1
:10228000FFF70CFD001B022802D90320BDE8F88FE0
:1022900028688001F4D40EE00128F7D06868226A2B
:1022A00000F48031914204D1616A00F470108842D8
:1022B00001D00120EAE70020E8E70000001002401A
:1022C0000000424280044242D000002000700040E2
:1022D00010B5401EB0F1807F01D3012010BD4FF03A
:1022E000E02460610F21601701F010FC0020A06164
:1022F00007202061002010BD7047704710B590F88E
:102300003C20012A22D0012280F83C20CA688C6837
:1023100022F4407222434C6822F4806222430C680B
:1023200022F4006222430C6922F4805222434C6959
:1023300022F400522243C969002322F480420A4356
:1023400001684A6480F83C30002010BD022010BDB6
:1023500070B590F83C20012A26D0012480F83C403A
:10236000022280F83D2003685A689D6822F07006BA
:102370000A6832435A600D4B02689A4208D0B2F1A3
:10238000804F05D00A4B9A4202D00A4B9A4204D1A0
:10239000496825F080031943916080F83D40002191
:1023A00080F83C10084670BD022070BD002C014032
:1023B000000400400008004010B5040003D094F869
:1023C0003D0010B107E0012010BD002084F83C0062
:1023D000204600F01FF8022084F83D00211D2068EF
:1023E00001F03EF9012084F8460084F83E0084F8AC
:1023F0003F0084F8400084F8410084F8420084F8EB
:10240000430084F8440084F8450084F83D0000202F
:1024100010BD000008B5114A01681148914208D169
:10242000816941F400618161806900F4006000907D
:1024300008BD0C4A9142FBD1C16941F00201C16162
:10244000C069002200F00200009011461D20FFF735
:1024500091FCBDE808401D20FFF77EBC002C014028
:10246000001002400004004090F83D10012901D006
:1024700001207047022180F83D100168CA6842F0CF
:102480000102CA6000680B49884208D0B0F1804F51
:1024900005D00949884202D00849884204D18168A0
:1024A00001F00701062903D0016841F00101016034
:1024B00000207047002C014000040040000800404C
:1024C00070B5044690F83C00012817D0012584F827
:1024D0003C50022084F83D002068826822F0770298
:1024E00022F47F4282600868502830D00DDC20281A
:1024F0004DD005DC98B310283BD148E0022070BDD8
:10250000302844D0402834D139E0602828D07028C1
:1025100006D0B0F5805F2CD0B0F5005F29D10AE07D
:10252000CB68D1E90121206801F0DDF820688168DD
:1025300041F0770109E0CB68D1E90121206801F081
:10254000D2F82068816841F48041816011E0CA6856
:102550004968206801F07CF95021206807E016E006
:10256000CA684968206801F084F96021206801F098
:10257000C4F884F83D50002084F83C0070BDCA685F
:102580004968206801F064F940212068EFE722687B
:1025900001461046EBE72DE9F0410D46040003D05B
:1025A00094F83D0018B108E00120BDE8F08100205A
:1025B00084F83C00204600F041F8022084F83D00F9
:1025C0002068816844F2070291438160211D2068E0
:1025D00001F046F8226890689169166A2B68AF6925
:1025E000034340F20330814341EA0721A868EF69C1
:1025F00008434FF6FC418843E96840EA072001435D
:1026000028692F6A000140EA0730084369686D694C
:1026100026F0220646EA0515294393602268906158
:1026200054F8460B0162012004F81F09E07520767A
:10263000E0762077A0750020B7E7000010B586B0DF
:10264000002400940194029403940068B0F1804F38
:1026500031D11A48C16941F00101C161C16901F07C
:1026600001010491816941F004018161816901F0F6
:1026700004010491816941F0080181618069694622
:1026800000F0080004904FF4004000900C48FFF761
:102690000FFA0820CDE9000401200290694609489C
:1026A000FFF706FA0848416821F4407141F0E06103
:1026B00041F48071416006B010BD0000001002407E
:1026C00000080140000C01400000014070B590F886
:1026D0003E60044690F83F5090F8423090F8432016
:1026E000022021B104290ED0012E1BD114E0012EAD
:1026F00018D1012B16D184F83E0084F84200012243
:102700000021206820E0012D0CD1012A0AD184F893
:102710003F0084F8430014E0012D03D1012B01D1C7
:10272000012A01D0012070BD84F83E0084F83F00EA
:1027300084F8420084F8430001220021206800F060
:10274000C5FF01220421206800F0C0FF2068016855
:1027500041F001010160002070BD704770B5044672
:10276000006801694FF00005C943890715D4C168A5
:10277000C943890711D4E91E01610120207720682F
:1027800080698007204602D0FFF7E7FF04E000F0F1
:10279000BFF8204600F04EF9257720680169C9434B
:1027A000490717D4C168C943490713D46FF004011E
:1027B0000161022020772068806910F4407F204664
:1027C00002D0FFF7CAFF04E000F0A2F8204600F0B4
:1027D00031F9257720680169C943090716D4C16812
:1027E000C943090712D46FF0080101610420207762
:1027F0002068C0698007204602D0FFF7AEFF04E0E2
:1028000000F086F8204600F015F925772068016968
:10281000C943C90617D4C168C943C90613D46FF0A8
:1028200010010161082020772068C06910F4407F02
:10283000204602D0FFF791FF04E000F069F820463F
:1028400000F0F8F8257720680169C943C90708D165
:10285000C168C943C90704D1891E0161204600F03F
:1028600039F920680169C943090609D4C168C94317
:10287000090605D46FF0800101612046FFF73CFD99
:1028800020680169C943490609D4C168C94349069A
:1028900005D46FF040010161204600F05BF920682B
:1028A0000169C94389060BD4C168C943890607D4A5
:1028B0006FF0200101612046BDE87040FFF71DBDAB
:1028C00070BD000000B585B000210091019102911A
:1028D000039100680B49884212D10B48816941F08D
:1028E000040181618069694600F0040004904FF49E
:1028F000807000900220019003900448FFF7D8F800
:1029000005B000BD002C014000100240000801404D
:10291000704770B5044690F83C000D4601280AD077
:10292000012084F83C0042B1042A18D0082A2AD099
:102930000C2A4DD139E0022070BD206800F0E6FE7F
:102940002068816941F0080181612068816921F076
:1029500004018161206881692A69114311E02068BE
:1029600000F0FCFE2068816941F40061816120680B
:10297000816921F480618161206881692A6941EA65
:102980000221816124E0206800F014FF2068C16901
:1029900041F00801C1612068C16921F00401C161F1
:1029A0002068C1692A69114311E0206800F02EFFF8
:1029B0002068C16941F40061C1612068C16921F4E6
:1029C0008061C1612068C1692A6941EA0221C1614F
:1029D000002084F83C0070BD10B5040003D094F8CA
:1029E0003D0010B107E0012010BD002084F83C003C
:1029F000204600F01EF8022084F83D00211D2068CA
:102A000000F02EFE012084F8460084F83E0084F891
:102A10003F0084F8400084F8410084F8420084F8C4
:102A2000430084F8440084F8450084F83D00002009
:102A300010BD70477047000010B50446022249B12E
:102A400004290ED0082913D094F84100012816D08B
:102A5000012010BD94F83E000128F9D184F83E20F1
:102A60000FE094F83F000128F2D184F83F2008E0FD
:102A700094F840000128EBD184F8402001E084F86C
:102A800041200122206800F021FE0F492068884281
:102A900003D1426C42F4004242642068884208D06C
:102AA000B0F1804F05D00949884202D008498842D8
:102AB00004D1816801F00701062903D0016841F0C3
:102AC00001010160002010BD002C01400004004005
:102AD0000008004070B51C4900680968884232D17E
:102AE0001A4E002506F18004B07940B3FEF754FF7A
:102AF000E56025616561A4F17001032201F1150013
:102B0000A56100F067FD10B1B6F90A200AE00F498F
:102B10000322133101F1120000F05CFD002812D0F5
:102B2000B6F90E2009480AA18C30FDF75FFBD4E905
:102B30000301C4E90501BDE8704000F06BBCE5602D
:102B400025616561A56170BD88010020000000203D
:102B5000256400007047704770470000F8B50268B0
:102B600004461068D168536910F00F0F4FF000054C
:102B700053D003F0010601F4907737435FD0C207CA
:102B800005D0CA0503D5226C42F001022264420737
:102B900005D5DA0703D0226C42F0020222648207D4
:102BA00005D5DA0703D0226C42F004022264020742
:102BB00007D501F02002324303D0226C42F0080214
:102BC0002264226C002A34D0800604D5880602D5FF
:102BD000204600F080FE20684069216CC0F3801020
:102BE000090700D430B3204600F05DFE206841693B
:102BF00049061BD5416921F040014161A06BA8B194
:102C000058494163A06BFEF707FF002811D0A06B65
:102C1000416B01B0BDE8F040084783060FD58B0635
:102C20000DD52046BDE8F84000F055BE2046FFF720
:102C300093FFF8BD2046FFF78FFF2564F8BD266B94
:102C40002023012E52D1C60650D5CE064ED510688F
:102C500050680090506940062AD5A16B086840680A
:102C60000004000CEAD0A68D8642E7D9E085886989
:102C7000202818D0D06820F48070D0602068416986
:102C800021F0010141612068416921F04001416169
:102C900084F83E3025632068C16821F01001C160CE
:102CA000A06BFEF795FEA08DE18D401A81B219E070
:102CB000A08DE18D401A81B2E08D0028BED00029A0
:102CC000BCD0D06820F49070D0602068426922F0B7
:102CD0000102426184F83E3025632068C26822F018
:102CE0001002C2602046FFF736FFF8BD05062BD55F
:102CF0000D0629D594F83D002128F6D1A068B0F53D
:102D0000805F01D12069B0B1206A411C2162216835
:102D100000784860E08C401E0004000CE084E4D1A0
:102D20002068C16821F08001C1602068C16841F05D
:102D30004001C160F8BD206A0088C0F308005060FF
:102D4000206A801C2062E5E74006F3D54806F1D5ED
:102D5000D168204621F04001D16084F83D3000F078
:102D60000CF9F8BD9738000870B5040004D094F849
:102D70003D00002510B106E0012070BD84F83C50F4
:102D8000204600F023F8242084F83D002068C16824
:102D900021F40051C160204600F0F8FD206801696F
:102DA00021F4904101612068416921F02A014161CB
:102DB0002068C16841F40051C1602564202084F876
:102DC0003D0084F83E00002070BD000030B585B0A5
:102DD0000024009401940294039400681B498842E3
:102DE00032D11B48816941F480418161816901F4DC
:102DF00080410491816941F0080181618069154D2C
:102E000000F0080004904020009002200190032070
:102E1000039069462846FEF74BFE8020CDE900046A
:102E2000694628460294FEF743FE0B48416841F08C
:102E3000E06141F004014160002201212520FEF7FC
:102E400099FF2520FEF788FF05B030BD003801400E
:102E500000100240000C01400000014090F83E309C
:102E6000202B0ED159B152B190F83C30012B08D033
:102E7000012380F83C300023036300F0E3BD012010
:102E800070470220704700000C49006809688842BA
:102E900012D10B480B4B027A032A04D041785A54C2
:102EA000491C417002E05A740121C1710449012298
:102EB00008310248FFF7D2BF70470000D001002060
:102EC00000000020E60000202DE9F843044690F8B9
:102ED0003D001F4616460D4620284CD1C5B1BEB157
:102EE00094F83C00012846D0012084F83C004FF0C3
:102EF0000008C4F84080212084F83D00FEF7CEFE93
:102F0000A6848146E684A068B0F5805F03D004E023
:102F10000120BDE8F883206928B12E465FF0000546
:102F200084F83C800EE00026FAE78021204600F07D
:102F3000A4FDA0B9AEB116F8010B21684860E08C81
:102F4000401EE084E08C4B464FF0000200970028C2
:102F5000EBD14FF04001204600F08FFD30B103204F
:102F6000D7E735F8020BC0F30800E6E7202084F825
:102F70003D000020CDE70220CBE77047FEE70000D0
:102F800030B585B000200090019002900390164863
:102F9000816941F020018161816901F02001049182
:102FA000816941F004018161816901F004010491AA
:102FB000816941F00801816180690C4D00F00800D1
:102FC0004FF4C0640490002221462846FEF760FEBC
:102FD00001210220CDE90210CDE9004169462846D1
:102FE000FEF766FD05B030BD00100240000801404C
:102FF00010B596B000240F94109411941294139469
:103000001C2108A81494FDF782F920216846FDF7D9
:103010007EF929482749016040F27F21C0E9011467
:1030200040F2E731C0E9031444618461FFF7C4F959
:1030300008B1FEF7CBFC4FF480500F900FA91E484B
:10304000FFF73EFA08B1FEF7C1FC1B48FFF7C4FCCE
:1030500008B1FEF7BBFC139413A917481494FFF7AB
:1030600077F908B1FEF7B2FC6020CDE908040A94B4
:103070000B940C940D94002208A90F480E94FFF7AE
:1030800048FC08B1FEF7A2FC00944FF40050CDE9D3
:103090000440029401940394694607480794FFF79B
:1030A0002DF908B1FEF792FC0348FFF70BFC16B0B0
:1030B00010BD0000002C0140F800002010B58CB0BD
:1030C00024216846FDF723F90024154809944FF0A0
:1030D00080410A94C0E900144FF6FF71C0E9024133
:1030E000046184610320CDE900040120CDE90204DC
:1030F0000494CDE905400794694609480894FFF710
:103100004AFA08B1FEF762FC099409A904480A9436
:10311000FFF71EF9002801D0FEF758FC0CB010BDD7
:103120004001002010B586B0002417480094019497
:1031300002940394049413490594016040F27F21A2
:10314000C0E9011441F28731C0E903148461FFF73B
:1031500033F908B1FEF73AFC4FF48050009069460D
:103160000948FFF7ADF908B1FEF730FC049404A953
:1031700005480594FFF7ECF8002801D0FEF726FC7F
:1031800006B010BD00040040880100200C4810B5B6
:103190000A4901604FF4E1314160002181600C2255
:1031A000C160C0E904128161C161FFF7DDFD002843
:1031B00003D0BDE81040FEF709BC10BD0038014047
:1031C000D0010020FEE7FEE72DE9F041284CA06A7F
:1031D00001F0DEF80546B4F90E0001F0D9F82549F2
:1031E00001F0EEF8294600F0F5FF0146E066A06C1C
:1031F00001F0B2F9A067A065E16A05460F4601F04B
:10320000DFF8E16D00F084FFE065E16F0646884677
:10321000284601F0A1F9394600F0DCFF014620669E
:10322000606D01F0CDF807463146206D01F0C8F819
:1032300006462946E06C01F0C3F8314600F068FF0D
:10324000394600F065FF0C492067884202DC0B49D3
:10325000884200D9216706498031C1F80080E567BE
:10326000206F606701F078F8BDE8F04100F06AB8BF
:10327000000000200000B4430000B4420000B4C2CB
:103280002DE9F0472B4CA06A01F082F8E16A8846EC
:1032900001F096F80546B4F90A0001F079F82649DC
:1032A00001F08EF8294600F095FF0646014660665B
:1032B000A06C01F051F9A06705464146A06501F0F8
:1032C0007FF8E16D00F024FFE065E16F0746894675
:1032D000284601F041F9414600F07CFF0146206696
:1032E000606D01F06DF880463946206D01F068F898
:1032F00007462946E06C01F063F8394600F008FF04
:10330000414600F005FF0D492067884202DC0C4968
:10331000884200D921670749A6668031C1F800902C
:10332000E567206F606701F017F8BDE8F04700F02F
:1033300009B8000000000020000070420000C642F2
:103340000000C6C270B5144D041E4FF400714FF456
:10335000806605DD00222846FEF79AFC012208E07F
:1033600002DA4442012200E000222846FEF790FCE7
:10337000002231462846FEF78BFC084801680848C1
:10338000016408490968CA6A62436423B2FBF3F224
:1033900042644A6370BD0000000801402C2C0140CB
:1033A00000000020F80000207047000070B51749A9
:1033B0000446164D00780978AD1E884222D1E91CDA
:1033C000607C097888421DD104220121204600F04A
:1033D0001BFD05F180060068B06003220521204630
:1033E00000F012FD01886984807885F824000822A5
:1033F0001146204600F008FD016871614068B06127
:10340000012000E000206871C0B270BD0200002001
:10341000704700002DE9F0416C4C002704F13401A5
:103420002770042201F1540000F0D4F8684E04F132
:103430008005002879D004F11001032201F1120067
:1034400000F0C8F868B32078A2783254401CC0B2AB
:103450003118AA680A60001DC0B23118628C0A8057
:1034600094F824208A70C01CC0B231186A690A60BE
:10347000AA6908304A60C0B222793254401CC0B2F6
:103480002070E178315494F83010514800F030FB4E
:10349000608CA4F8250094F8240084F82700BDE887
:1034A000F0814A490322133101F10F0000F092F834
:1034B0000028C8D145490322163101F10C0000F063
:1034C00089F858B1D5E90501C5E909013F48A4309B
:1034D000FCF710FF00F05CFFA064E0E73B4903222B
:1034E000193101F1090000F075F858B1D5E905016D
:1034F000C5E90B013549843101F1280000F07AFC5F
:10350000E064CCE7314903221C31881D00F062F8E9
:1035100060B1D5E90501C5E90D012C49843101F1FE
:10352000300000F067FC2065B9E713E0274903226B
:103530001F31C81C00F04EF80028B0D0D5E90501B5
:10354000C5E90F012149843101F1380000F052FC36
:103550006065A4E71D490422383101F1500000F0F4
:1035600039F838B32078A2783254401CC0B23118F0
:10357000AA680A60001DC0B23118628C0A8094F8F3
:1035800024208A70C01CC0B231186A690A60AA6916
:1035900008304A60C0B222793254401CC0B2207058
:1035A000E178315494F83010094800F0A1FA012074
:1035B000A07174E7054904223C3101F14C0000F090
:1035C00009F8002889D0A77169E7000000000020F1
:1035D000D400002030B5002306E0C45CCD5CAC42D2
:1035E00001D0002030BD5B1C9342F6DB012030BDD2
:1035F000FEF75ABB30B58FB028216846FCF787FE2E
:1036000014210AA8FCF783FE0225012004900095EE
:103610001020059000244FF46010CDE90840079574
:103620006846FEF7C5FC08B172B6FEE70F20CDE98B
:103630000A054FF48060CDE90C4002210AA80E94DF
:10364000FEF7CAFB002801D072B6FEE70FB030BD0E
:10365000704700000148FFF781B800008801002092
:10366000F0B50268164B174C174D4FF08047984243
:1036700005D0B84203D0A04201D0A84203D122F025
:1036800070064A683243984205D0B84203D0A0423F
:1036900001D0A84203D122F44074CA6822434C6985
:1036A00022F08002224302608A68C2620A68826253
:1036B000984201D10969016301214161F0BD000017
:1036C000002C0140000400400008004010B501F04B
:1036D0001F030121046A99408C430462016A9A40E5
:1036E0001143016210BD10B5846842EA032224F43C
:1036F0007F440A432243826010BD826822F0700238
:103700000A4342F0070181607047000030B5026A49
:1037100022F001020262026A4368846924F07305A0
:103720000C682C4322F002058A682A430A4DA842FD
:103730000BD122F00805CA6823F440732A434D696F
:1037400022F004021D438B692B4343608461496866
:103750004163026230BD0000002C014030B5026AB6
:1037600022F010020262026A436884690D6824F440
:10377000E64444EA05248D6822F0200242EA05125C
:103780000B4DA8420ED1CD6822F0800242EA05120C
:103790004D6923F4406343EA85038D6922F04002BA
:1037A00043EA85034360846149688163026230BDF6
:1037B000002C014030B5026A22F480720262036A72
:1037C0004268C46923F4007324F073050C682C4329
:1037D0008D6843EA05230C4DA8420ED1CD6823F431
:1037E000006343EA05234D6922F4405242EA051280
:1037F0008D6923F4806342EA05124260C46149681E
:10380000C163036230BD0000002C014030B5026A84
:1038100022F480520262046A4268C3690D6823F48C
:10382000E64343EA05238D6824F4005444EA053452
:10383000064DA84204D14D6922F4804242EA851225
:103840004260C36149680164046230BD002C0140DC
:1038500010B5036A046A24F001040462846924F048
:10386000F00444EA021423F00A020A43846102626B
:1038700010BD10B5036A23F0100303628369046A64
:1038800023F4704343EA023224F0A00343EA011117
:103890008261016210BD10B5406A0021C185C184FA
:1038A000FFF75AF910BD0168CA6822F49072CA6025
:1038B00001684A6922F001024A61016B012904D1C1
:1038C0000168CA6822F01002CA60202180F83E1008
:1038D00000210163704708B590F83E10222901D0FD
:1038E000022008BD82684FF480539A4201D10169D9
:1038F00021B1816A9A421BD04AB10AE00268816A0A
:103900005268C2F308020A80816A891C08E00269D1
:1039100072B10268526802F07F020A70816A491C23
:103920008162C18D491E0904090CC18503D019E0CB
:1039300002685268F1E70168CA6822F02002CA6092
:103940000168CA6822F48072CA6001684A6922F07C
:1039500001024A61202180F83E10016B012903D049
:10396000FFF792FA002008BD002101630168CA68D0
:1039700022F01002CA6001680A68D20602D50A68FD
:1039800049680091818DFFF7E6F8EBE770B50446D2
:1039900000680169E26821F4405111430161216925
:1039A000A0680843616908432168CA6841F20C6352
:1039B0009A430243CA6020684169A26921F44071B8
:1039C000114341611E492068884202D1FEF7AAFADC
:1039D00001E0FEF797FA00EBC00101EB001260680E
:1039E00064218000B2FBF0F3B3FBF1F36FF0180633
:1039F0007343B2FBF0F5B2FBF0F605EB830532231F
:103A000003EB0515B5FBF1F5B6FBF1F605F0F00596
:103A100005EB0615B2FBF0F6B2FBF0F0B0FBF1F0EF
:103A20006FF01802504306EB800003EB0010B0FB70
:103A3000F1F0216800F00F002844886070BD00009C
:103A40000038014081628285C28500210164222202
:103A500080F83E2080F83C100168CA6842F4807209
:103A6000CA6001684A6942F001024A610068C1689F
:103A700041F02001C160002070472DE9F0419846D7
:103A800017460E460446069D1DE0681C1BD02DB14E
:103A9000FEF704F9A0EB0800A84214D92068C16819
:103AA00021F4D071C1602068416921F001014161B8
:103AB000202084F83D0084F83E00002084F83C007B
:103AC0000320BDE8F0812068006836EA000004D0D9
:103AD0000020B842D9D00020F3E70120F9E7000028
:103AE0000148FFF73BB80000D0010020FEE70000CE
:103AF0000A4610B501464FF47A730348FFF7E4F91C
:103B0000002800D0012010BDD00100200907090EB7
:103B1000002804DB00F1E02080F80014704700F07A
:103B20000F0000F1E02080F8141D704740F20132D0
:103B300000204FF0E04100F0B9BD0000024A002033
:103B4000110700F0B3BD000001FDFFFF10B50446F2
:103B5000D1E9000100F002F8206010BDF8B504467C
:103B60000D466A4600F06AF800987E300090002802
:103B70001EDC002213462046294600F0CDF917D05E
:103B8000002140F608004FF0000006462046294676
:103B900000F07CF9044640F6080006EA00014FF008
:103BA000000034F0004004BF0220FCF778FD29E05B
:103BB0000098FF2828DB002108464FF0000000F4A1
:103BC0004006002213462046294600F06BFA8CBFBF
:103BD000002501250220FCF762FD4FF0FF4446B1AD
:103BE000002D0CBF4FF400004FF48000B04218BF0E
:103BF000084C042108464FF00000002D04BF84F05B
:103C00000040F8BD2046F8BD20462946BDE8F840F2
:103C100000F03CB9FFFF7F7F10B504460A46D4E9A7
:103C20000003194600F036F8C4E9000110BD303831
:103C30000A2801D2012070470020704710B51446B1
:103C400000222260114A21F000439342A8BF10BD18
:103C500053EA000208BF10BDB3F5801FA8BF226859
:103C600007DA362200F022FD6FF0350221F0004322
:103C70002260DFF81CC06FF31E510CEB23531A4473
:103C800041F0FF5141F00051226010BD0000F07F73
:103C900002FCFFFF2DE9F04106460C4640F2FF759D
:103CA000174635EA14502BD000221346304600F058
:103CB00033F925D03A463046214600F0F7FC064657
:103CC0000C4635EA145010D000221346304600F05E
:103CD00023F915D10220FCF7E2FCFFF72FFF0A467B
:103CE000214662F31E01BDE8F0810220FCF7D7FCFB
:103CF000FFF71CFF0A46214662F31E01BDE8F08172
:103D000030462146BDE8F081FDF7D6FFFFF772FC93
:103D1000FFF736F9FFF73AFAFFF7D0F9FFF768F93E
:103D2000FFF700FA01222C492C48FFF797F83C21B5
:103D30002B48FEF7CBFC00212A48FEF77DFE2A48DF
:103D4000FEF792FB244D0024083DE87930B195F848
:103D500030102648FFF72AFBEC716C70687910B1BF
:103D6000FFF758FB6C71A879B0B11B4903220831E9
:103D700001F11500FFF72EFC10B1FFF781FAE4E71F
:103D8000154903220B3101F11200FFF723FC002833
:103D9000DBD0FFF719FAD8E7154E00224FF4007177
:103DA0003046FDF775FF002231153046FDF770FFF4
:103DB000F00444626C81AC810748EC81AC677830D8
:103DC000EC6704602C676C67AC65EC652C666C6610
:103DD000EC662C646C64B8E708000020D001002079
:103DE00040010020F800002088010020E6000020AB
:103DF0000008014008B50A460021009101466846C6
:103E0000FCF72BFB009808BD70B5094B00240A4451
:103E1000DC611C62064C0B461C3403E0455CCE1A88
:103E2000491CA5559142F9DB01481C3070BD0000CA
:103E30008000002010B500290AD00878002807D09B
:103E400005487844FCF7EEFE002801D0002010BDA4
:103E50000248784410BD0000DE090000D6090000C9
:103E600010B500290AD00878002807D00548784402
:103E7000FCF7D8FE002801D0002010BD024878448D
:103E800010BD0000C20A0000BA0A000021F0004282
:103E9000A2F16052B2F5801F01F0004328BFD2F1B9
:103EA0007F6C0BD95FEA001C43EAC20242EB507000
:103EB00018BF704728BF20F001007047B2F5801F7F
:103EC000BCBF184670474FEA410C1CF5001F02D2D8
:103ED000084600F03CBB70B500F096F80000008981
:103EE000FFF7F6BF4FF00040A0F5800070470000DC
:103EF00002494FF0000000F0A7BB00BF0000F87FB0
:103F0000491058BFC1F140415B1058BFC3F1404355
:103F10008B42EFF30080704751EA030C17D41CF575
:103F2000801F58BFBCF5801F00F10680994218BF62
:103F3000704708BF9042704707D711F5801F58BFE0
:103F400013F5801F19D499427047894270471CF5B8
:103F5000801F08D5BCF5801FF7D58B4218BF70476E
:103F600008BF824270474FF4001C1CEB410F38BF62
:103F70001CEB430F01D28B42704770B500F044F840
:103F8000922449004FF000514FF08053FFF7B8BF23
:103F900051EA030C17D41CF5801F58BFBCF5801FD5
:103FA00000F10680994218BF704708BF90427047E1
:103FB00007D711F5801F58BF13F5801F19D49942F8
:103FC0007047894270471CF5801F08D5BCF5801FDB
:103FD000F7D58B4218BF704708BF824270474FF435
:103FE000001C1CEB410F38BF1CEB430F01D28B426E
:103FF000704770B500F008F8922449004FF0005166
:104000004FF08053FFF77CBF0EF1020E2EF0030E2F
:104010005EF8046B364205D4012A43EB030515F51F
:10402000001F12D8012841EB010C1CF5001F0CD811
:104030000ED14FEAD17C15F5001F0CEB4C0C0CF1A6
:10404000020C08BF4CEBD37C04E04FF0080C01E0FD
:104050004FEAD37C0CEB4C0526FA05F606F0070672
:10406000B6F1040C06D20EEB860CBDE870404CF0A5
:10407000010C6047DFE80CF0090B02024FF0004131
:104080004FF00000A1F5002170BD1946104601282F
:1040900051EB010418BFD4F5001484BF002001F0D7
:1040A000004170BD53EA010C17D41CF5801F58BFA6
:1040B000BCF5801F00F106808B4218BF704708BF17
:1040C0008242704707D713F5801F58BF11F5801F34
:1040D00019D48B4270479B4270471CF5801F08D54E
:1040E000BCF5801FF7D5994218BF704708BF9042B2
:1040F00070474FF4001C1CEB430F38BF1CEB410F03
:1041000001D2994270470FB40CBC03BCFFF771BFDA
:1041100090EA010F48BF81F0004100F12482421A69
:104120003CBF801A89184FEAD0524FF07F4C1CEAEE
:10413000410FA2EBD15318BF9CEA026F00F03B8005
:104140004FF0004C4CEA00204CEA012121FA03FC1C
:1041500010EB0C0C1ED202F1FF325FEA1C2040EB88
:10416000C25038BF70471CF07F0F4FEA400C18BF99
:10417000BCF17F4F38BF7047C3F12003994008BF9F
:1041800020F00100BCF17F4F38BF7047A0F1C04064
:1041900000F0DDB94FEA3C00000A40EBC25028BFF6
:1041A0001CF0FF0F4FEA400CE6D018BFBCF17F4F68
:1041B00038BF7047EAE79CEA026F05D010EA5C0F4F
:1041C00008BF00F00040704710B500F07AF900BF5A
:1041D00064FBBE3E4FF47F0C1CEAD0121EBF1CEAEB
:1041E000D11392EA0C0F93EA0C0F00F0858090EA4D
:1041F000010F48BF42F4807240F4000C41F400000B
:104200002CF07F4120F07F4000B58142A2EB0302F9
:104210000FF2081CACEB504EC0F100009EF800E01D
:104220004FEA4E0E00FB0EFC38BF49004FEA2C1C33
:1042300002F5FA020CFB0EF34FEACE1E4FEA112CE8
:104240004FEAC1210EEB635E42EB22420EFB0CFCF7
:104250004FEA1C5300FB03114FEA112C4FEA0131C6
:104260000EFB0CFC4FEADC4C00FB0C11C14228BFDA
:1042700009184CEB03335DF804EB10EB410143EB01
:10428000C250B2F57C0F38BF704729D512F0F00F3D
:104290001CBF00F1C04000F00040704700818283E5
:1042A0008485868788898B8C8D8E8F919293959645
:1042B00097999A9C9D9FA0A2A3A5A7A8AAACAEB0CF
:1042C000B2B3B5B7B9BCBEC0C2C5C7C9CCCED1D4D4
:1042D000D7D9DCDFE2E6E9ECF0F3F7FAFE00000004
:1042E0004FEA400C0CF1807CBCF17E4F28BF704738
:1042F000B0F1C04000F02BB990EA010F0CEAD113E5
:1043000048BF42F48072624538BF634507D213F458
:104310007F0F16D080EA010000F00040704710B512
:1043200000F0CFF8097EFC3E00F005B880EA0100FD
:1043300000F00040704780EA010000F0004000F00B
:1043400006B912F47F0F04BF0248704780EA0100EB
:1043500000F0FDB80000C07F41000B0ED3F19E02BB
:1043600008D950F400034FEA032323FA02F048BFB0
:104370004042704710B500F0A4F800BF4992248075
:10438000002070476FF0004282EA20007047000072
:1043900010F0004148BF4042B0FA80F310FA03F237
:1043A000C3F19D030BD051EAC35101EB1220530618
:1043B00038BF704700F1010008BF20F001007047CE
:1043C0004FF47F0C1CEAD0121EBF1CEAD11392EAF4
:1043D0000C0F93EA0C0F00F0478090EA010F48BFE2
:1043E00042F480724FF0004C4CEA00204CEA01216C
:1043F00002EB0302A0FB0113A2F50002002918BF83
:1044000043F001035B0028BF4FEA330342EB224233
:104410005FEA132C4CEBC2502EBFBCEB436FB2F5DE
:104420007C0F70474FEA036CBCF1004F08BF20F0CF
:104430000100B2F57C0F38BF70470BD582F0FF0248
:1044400012F5803FC8BF704700F1C040D8BF00F0F0
:104450000040704700F5000C5FEA4C0C48BF704705
:10446000B0F1C04000F073B890EA010F0CEAD1132C
:1044700048BF42F48072624538BF634504D280EA87
:10448000010000F00040704710B500F01AF800BFBE
:104490008900013E00F007B800F009B85FEA410C5E
:1044A0005FEA1C6C08D080EA010000F050B85FEAB7
:1044B000400C5FEA1C6CF6D14FF00040A0F5800084
:1044C00070470EF1020E2EF0030E5EF8044B2442EC
:1044D00004D44FEA4102B2F17F4F11D84FEA4003B2
:1044E000B3F17F4F0CD80ED14FEAD07CB2F17F4FA1
:1044F0000CEB4C0C0CF1020C08BF4CEBD17C04E033
:104500004FF0080C01E04FEAD17C0CEB4C0324FA8D
:1045100003F404F00704B4F1040C06D20EEB840C8F
:10452000BDE810404CF0010C6047DFE80CF00708D4
:1045300002024FF00040A0F5800010BD0846420086
:1045400018BFD2F1807288BF00F0004010BDFF217B
:1045500041EAD050C005704790EA010F48BF81F092
:1045600000413FF5DCAD421A04D882F00042A0EBD6
:10457000020011444FEAD0524FF07F4C1CEA410F29
:10458000A2EBD15318BF9CEA026F4AD04FF0004C07
:104590004CEA00204CEA012121FA03FCB0EB0C0CA0
:1045A0000FD412F0FE0F36D05FEA4C001DD500127A
:1045B00040EBC25038BF70471CF03F0F18BF704728
:1045C0000BE0A2F101025FEA1C2040EBC25038BFB1
:1045D00070471CF07F0F18BF7047C3F1200399404C
:1045E00014BF401E20F00100704780084FEA1223DC
:1045F00008BF7047B0FA80FCA2EB0C02CCF1280C8B
:1046000060FA0CF093EA122F04BF00EBC25070471F
:104610004FEAC3707047130A5FEADC1008BF7047A7
:10462000F6E79CEA026F04D010EA5C0F08BF002096
:10463000704710B5FFF745FF40DFF63E81F00040C0
:1046400070474FF0000070470CF00F03092B08BFB4
:10465000082000F05F800A2B0BD0082B18BF704792
:1046600008BF1CF0400F0AD04FF000004FF00001CF
:1046700070471CF0400F18BF4FF0004070471CF00F
:10468000100F08D020F0704300F07F4242EAD301BF
:104690004FEA4370704700F0604021F07F4242EAE9
:1046A000000201F07F4040EA727070474FF0FF0C4B
:1046B0004CF4E06C1CEA11531CBF9CEA030C9445BB
:1046C000C2BFDA4201EB02517047002B0DD0BCF1A2
:1046D000000F0FD0002A01F00041A4BF41F0E041DB
:1046E00041F07F614FF00000704701F000414FF052
:1046F0000000704750EA01334FF09B0C18BF4CF09C
:10470000806C7FF4F5AB7047FCF736B9FCF742BB21
:10471000FCF7D0BC1CF4801F11D01CF4E02F03D098
:104720006FEACC31490070474FF04050EFF3008200
:1047300022F0704242EA000282F3008870474FF094
:1047400000007047000000000000000001020304A8
:1047500006070809000000000102030402400000EF
:10476000000000A00000000005400000000000C89C
:10477000000000000C4000000000409C0000000011
:10478000194000000020BCBE0000000034400000C2
:10479000BFC91B8E00000004B5400000504BCFD0B5
:1047A0006607E2CF010000006C4100003E8251AA82
:1047B000DFEEA73401000000D9420000DCB5A0E222
:1047C0003A301F97FFFFFFFFB4450000FD25A0C84A
:1047D000E9A3C14FFFFFFFFFFF3F00000000008083
:1047E00000000000FF3F000000000080000000000B
:1047F0004C49000800000020D400000028010008F7
:10480000204A0008D4000020A4070000440100084A
:10481000000000000000F07FFFFFFFFFFFFFEF7FC1
:104820001001000043000000F8FFFFFF004040407F
:104830004040404040404141414141404040404073
:10484000404040404040404040404040400502021F
:1048500002020202020202020202020202202020DE
:10486000202020202020200202020202020290903A
:104870009090909010101010101010101010101038
:10488000101010101010101002020202020288888C
:104890008888888808080808080808080808080898
:1048A0000808080808080808020202024000000080
:1048B00000000000000000000000000000000000F8
:1048C00000000000000000000000000000000000E8
:1048D00000000000000000000000000000000000D8
:1048E00000000000000000000000000000000000C8
:1048F00000000000000000000000000000000000B8
:1049000000000000000000000000000000000000A7
:104910000000000000000000000000000000000097
:104920000000000000000000000000000000000087
:104930001C00000043000000F8FFFFFF0C00000017
:104940000E0000000F0000002E0000000000020317
:104950000600000000000000000000005350455019
:104960004F534F53704F4B704F4B694F4B64000088
:104970000000000080070000CDCC4C3D120000007C
:104980004C4F414444454D4F53544F50000000009C
:104990000000000000000000000000000000000017
:1049A0000000000000000000000000000000000007
:1049B00000000000000000000000000000000000F7
:1049C00000000000000000000000000000000000E7
:1049D00000000000000000000000000000000000D7
:1049E00000000000000000000000000000000000C7
:1049F00000000000000000000000000000000000B7
:104A000000000000000000000000000000000000A6
:104A10000100000010000000000000000024F4006D
:04000005080000ED02
:00000001FF
